:100000000C9434000C943E000C943E000C943E0082
:100010000C941F010C943E000C943E000C943E0086
:100020000C943E000C943E000C943E000C943E0058
:100030000C943E000C943E000C943E000C943E0048
:100040000C943E000C943E000C943E000C943E0038
:100050000C943E000C943E000C943E000C943E0028
:100060000C943E000C943E0011241FBECFEFD8E04C
:10007000DEBFCDBF0E94D9000C944F010C9400004C
:1000800084B18C6184B987B1807F87B988B18F6072
:1000900088B985B1837E85B908952A9885B188612C
:1000A00085B985E08A95F1F70000309B31C080E08A
:1000B000319B84E3329B87E3339B8AE295B1977E41
:1000C00095B92B9895B1946195B995E09A95F1F70A
:1000D0000000309B82E3319B85E3329B88E3339BB6
:1000E00080E395B19B7E95B92C9895B19C6095B9AC
:1000F00095E09A95F1F70000309B83E3319B86E30E
:10010000329B89E3339B83E295B1937F95B9089540
:1001100081E3CECF8FEF8AB93C9A3D9A2FEF89EFDA
:1001200090E0215080409040E1F700C00000089529
:10013000459895E09A95F1F700000E942D0185E021
:100140008A95F1F70000449A95E09A95F1F700003E
:1001500044988FE39FE10197F1F700C000000895F4
:10016000459A95E09A95F1F700000E942D01449A76
:1001700085E08A95F1F7000044988FE39FE10197AD
:10018000F1F700C0000008951F93CF93DF93EC01B7
:100190008881882351F010E00E94B0001F5FFE01AB
:1001A000E10FF11D80818111F7CFDF91CF911F9178
:1001B00008950E948A000E9440008FE00E949800EB
:1001C00081E00E94980080916800826080936800BE
:1001D00080916C008F6080936C007894D0E00CC0AC
:1001E0000E94B0002FEF89EF90E0215080409040B6
:1001F000E1F700C00000DC2F83B7816083BF8895E2
:1002000083B78E7F83BFF8940E944D00C82FD99A80
:1002100078948D1739F3882329F38A3231F08332A9
:10022000F9F681E00E949800DDCF80E10E949800FD
:1002300080E20E94B00080E10E949800D3CF1F921C
:100240000F920FB60F9211240F900FBE0F901F90B8
:1002500018958AB180678AB908955C985D9890E096
:1002600020E030E008C05C9A5E9A5C982F5F3F4FB8
:100270002830310591F05E98AC01022E02C05595F0
:1002800047950A94E2F740FDEECF5C985E9A5C9841
:100290002F5F3F4F2830310571F75D9A0895F8942C
:0202A000FFCF8E
:00000001FF
