:100000000C9434000C943E000C943E000C943E0082
:100010000C943E000C943E000C943E000C943E0068
:100020000C943E000C943E000C943E000C943E0058
:100030000C943E000C943E000C943E000C943E0048
:100040000C943E000C943E000C943E000C943E0038
:100050000C943E000C943E000C943E000C943E0028
:100060000C943E000C943E0011241FBECFEFD8E04C
:10007000DEBFCDBF0E9440000C948D000C940000A8
:100080008FEF8AB93C9A3D9A2FEF89EF90E021508B
:1000900080409040E1F700C00000459825E02A9597
:1000A000F1F700008FE08BB985E08A95F1F7000049
:1000B000449A95E09A95F1F7000044988FE39FE108
:1000C0000197F1F700C00000459895E09A95F1F787
:1000D000000081E08BB9449A25E02A95F1F70000F1
:1000E00044988FE39FE10197F1F700C00000459A23
:1000F00095E09A95F1F7000086E58BB9449A25E0E2
:100100002A95F1F7000044988FE39FE10197F1F7FA
:0E01100000C0000080E090E00895F894FFCF5A
:00000001FF
