:100000000C9434000C943E000C943E000C943E0082
:100010000C943E000C943E000C943E000C943E0068
:100020000C943E000C943E000C943E000C943E0058
:100030000C943E000C943E000C943E000C943E0048
:100040000C943E000C943E000C943E000C943E0038
:100050000C943E000C943E000C943E000C943E0028
:100060000C943E000C943E0011241FBECFEFD8E04C
:10007000DEBFCDBF0E9440000C9460000C940000D5
:10008000259A24982C9A21E030E283B1982F907120
:1000900084FD14C02223C9F32FEF89EF90E0215093
:1000A00080409040E1F700C0000085B1832785B90A
:1000B00020E083B1982F907184FFECCF292FE5CFFA
:0400C000F894FFCFE2
:00000001FF
