:100000000C943C000C944E000C944E000C944E004A
:100010000C944E000C944E000C944E000C944E0028
:100020000C944E000C944E000C944E000C944E0018
:100030000C944E000C944E000C944E000C944E0008
:100040000C944E000C944E000C944E000C944E00F8
:100050000C944E000C944E000C944E000C944E00E8
:100060000C944E000C944E00CB01D101D701DD0160
:10007000E301E901C501BF0111241FBECFEFD8E0A4
:10008000DEBFCDBF12E0A0E0B1E001C01D92AE33F3
:10009000B107E1F70E9435040C945D040C94000054
:1000A000CF93DF93EC018881823011F0833019F413
:1000B00018821A82198260E0CE010E94510485E004
:1000C00088831A821982DF91CF910895CF93DF93AD
:1000D000EC018881863029F110F18730B1F0883049
:1000E00049F418821A821982BE01675F7F4FCE01E0
:1000F0000E94CF0360E0CE010E94510482E0888319
:100100001A821982DF91CF91089518821A8219827A
:10011000BE01685F7F4FCE010E94CF03EBCF8530D9
:1001200049F718821A821982E5CFFC0110821282E7
:10013000118213821482158216821782108611860C
:100140000895CF93DF93EC0160E00E94510482E0B8
:1001500088831A821982DF91CF910895FC018081F2
:10016000853099F070F08730A1F078F08830D9F4BC
:10017000108212821182BF01675F7F4FCF010C9402
:10018000CF03823011F0833069F410821282118221
:100190000895108212821182BF01685F7F4FCF01E4
:1001A0000C94CF0308950895FC0181E09081911192
:1001B00001C080E0089580E008950F93CF93DF930E
:1001C000EC011A8219828881853009F45EC008F139
:1001D000873009F476C088F1883049F48D81811127
:1001E0008AC08E818111A9C0898581118FC08981C2
:1001F0009A8101969A838983892B29F31B821C8219
:100200001D821E821F8218861986DF91CF910F9161
:100210000895823049F1833051F78D81811172C088
:100220008B81882321F318821A82198260E0CE0123
:100230000E94510482E088833FC08D8181115BC0A0
:100240008F818823A1F218821A82198200E028E89F
:1002500033E140E050E0BE01675F7F4FCE010E9476
:10026000750388E0888328C08D8181114BC08C8103
:10027000882309F4BCCF18821A82198261E0CE016A
:100280000E94510483E0888317C08D81811133C09F
:100290008E81882309F4ABCF18821A82198200E07C
:1002A00028E833E140E050E0BE01685F7F4FCE01B7
:1002B0000E94750387E0888381E090E09A838983B8
:1002C0009DCF8D81811117C08885811126C08F81B6
:1002D000882309F48CCF18821A821982BE01685FC4
:1002E0007F4FCE010E94CF0360E0CE010E945104F7
:1002F00085E08883E1CFCE010E94660089819A81E2
:10030000019678CFCE010E94500071CF18821A82D8
:100310001982BE01675F7F4FE4CF18821A8219826B
:10032000BE01685F7F4FCE010E94CF0361E0CE0126
:100330000E94510486E08883BFCF18821A821982F6
:10034000BE01675F7F4FEFCF9C01285F3F4F621771
:1003500073073CF00A966817790718F481E0FB01EF
:1003600080830895DC01462F50E041505109483008
:10037000510548F44C5C5F4FFA010C94570481E03E
:100380009C91983009F080E0089581E09C9197302D
:10039000D9F380E0F9CF9C91915081E0933098F7A8
:1003A000089581E09C91923079F380E0EDCF81E077
:1003B0009C91933049F380E0E7CF9C91945081E089
:1003C000953008F7089581E09C919530E9F280E03E
:1003D000DBCF81E09C919630B9F280E0D5CF21E06F
:1003E000FC012383089521E0FC012483089521E08A
:1003F000FC012583089521E0FC012683089521E076
:10040000FC01278308956F927F928F929F92AF9203
:10041000BF92CF92DF92EF92FF920F931F93CF93F1
:10042000CE2DDC018D909D90AD90BC90139718144B
:1004300019041A041B041CF51496ED91FC911597F0
:10044000A185B285AB2B49F13F01BFE06B0E711C5A
:10045000C12CD12C7601C3940DC0F301BFEFCB1A90
:10046000DB0AEB0AFB0AAFE06A0E711CA185B285BC
:10047000AB2B99F0C814D904EA04FB0471F7CF91AF
:100480001F910F91FF90EF90DF90CF90BF90AF90B2
:100490009F908F907F906F9008955287418700833F
:1004A000118322833383C483748763879687858708
:1004B0001582168217821086E2CF0F931F93CF9377
:1004C000DF938B01DC014D915D916D917C911397D0
:1004D00014161506160617060CF51496ED91FC91E8
:1004E00015978185928580179107E9F09F01215F1B
:1004F0003F4F81E090E0A0E0B0E00BC0F901019631
:10050000A11DB11D215F3F4FC185D285C017D10705
:1005100051F084179507A607B70781F7DF91CF91B0
:100520001F910F9108951286118614861386DF910C
:10053000CF911F910F9108950F931F93FC01758325
:100540006483208331834283538312161306140677
:1005500015064CF4DB011A961C921E9219971E96F2
:100560009C938E931D97178306831F910F91089577
:100570002F923F924F925F926F927F928F929F92B3
:10058000AF92BF92CF92DF92EF92FF920F931F93A1
:10059000CF93DF93CDB7DEB728970FB6F894DEBFC1
:1005A0000FBECDBF1C0149835A836B837C83FC0142
:1005B00080809180A280B380181419041A041B044F
:1005C0000CF07AC0C12CD12C7601C39418861F82FE
:1005D0008481958113C0B701A6012F813885215FE1
:1005E0003F4F38872F833FEFC31AD30AE30AF30A3A
:1005F000481559056A057B050CF05EC0AF81B885CA
:10060000A80FB91F19962D913C911A973E832D83FF
:10061000232B09F315964D905D906D907C90189763
:100620000D911D912D913C91139740165106620634
:1006300073068CF649815A816B817C81440E551E6C
:10064000661E771E15964D925D926D927C9218975C
:1006500040165106620673060CF4BDCF1D96ED914F
:10066000FC911E970680F781E02D6D817E811B969F
:100670008D919C911C970995F10184819581EF8161
:10068000F885E80FF91F2481222381F045815681E6
:10069000678170850081118122813381401B510B5C
:1006A000620B730B4583568367837087F1018080EB
:1006B0009180A280B3808FCF28960FB6F894DEBFCA
:1006C0000FBECDBFDF91CF911F910F91FF90EF90A3
:1006D000DF90CF90BF90AF909F908F907F906F9062
:1006E0005F904F903F902F9008954F925F926F923E
:1006F0007F92AF92BF92CF92DF92EF92FF920F93D1
:10070000CF93DF93DB01C0902C02D0902D02E090BC
:100710002E02F0902F021C141D041E041F04FCF472
:10072000C0913002D091310269857A85672B29F119
:10073000FE013F96412C512C320143940BC0EF0136
:100740006FEF461A560A660A760A3F96A984BA845B
:10075000AB2899F04C145D046E047F0481F7DF919F
:10076000CF910F91FF90EF90DF90CF90BF90AF901F
:100770007F906F905F904F900895BA87A9872883E4
:1007800039834A835B830C839C878B878CE292E05E
:100790009E878D871D821E821F821886E0CF0F9351
:1007A0001F93CF93DF938B0140912C0250912D0228
:1007B00060912E0270912F02141615061606170668
:1007C0000CF5E0913002F091310281859285081795
:1007D0001907E9F09F01215F3F4F81E090E0A0E021
:1007E000B0E00BC0F9010196A11DB11D215F3F4F83
:1007F000C185D2850C171D0751F084179507A607F0
:10080000B70781F7DF91CF911F910F91089512865D
:10081000118614861386DF91CF911F910F91089551
:1008200080E091E09093310280933002ECE2F2E0BC
:1008300084E190E0A0E0B0E080839183A283B38361
:1008400010920A0110920901F0930E01E0930D013C
:1008500084EA91E090933302809332020895AB01D1
:10086000BC018CE292E00C94B802259A0E9410041C
:1008700084E392E00E94950084E392E00E94A1004C
:100880006AE070E080E090E00E942F0484E392E050
:100890000E94DD008FE39CE90197F1F700C00000A2
:1008A000EFCF611102C02D9808952D9A0895EE0F93
:0E08B000FF1F0590F491E02D0994F894FFCFFE
:00000001FF
