:100000000C943C000C9459000C9459000C94590029
:100010000C9459000C9459000C9459000C945900FC
:100020000C9459000C9459000C9459000C945900EC
:100030000C9459000C9459000C947E050C945900B2
:100040000C9459000C9459000C9459000C945900CC
:100050000C9459000C9459000C9459000C945900BC
:100060000C9459000C945900D601DC01E201E8011E
:10007000EE01F401D001CA0111241FBECFEFD8E078
:10008000DEBFCDBF11E0A0E0B1E0E6EAF1E102C0E1
:1000900005900D92A832B107D9F712E0A8E2B1E0BD
:1000A00001C01D92AC36B107E1F70E94BB040C946D
:1000B000D1080C940000CF93DF93EC01888182304B
:1000C00011F0833019F418821A82198260E0CE018F
:1000D0000E94780585E088831A821982DF91CF918A
:1000E0000895CF93DF93EC018881863029F110F1D8
:1000F0008730B1F0883049F418821A821982BE0123
:10010000675F7F4FCE010E94DA0360E0CE010E945C
:10011000780582E088831A821982DF91CF91089551
:1001200018821A821982BE01685F7F4FCE010E9439
:10013000DA03EBCF853049F718821A821982E5CFAE
:10014000FC0110821282118213821482158216829F
:100150001782108611860895CF93DF93EC0160E03B
:100160000E94780582E088831A821982DF91CF91FC
:100170000895FC018081853099F070F08730A1F0FE
:1001800078F08830D9F4108212821182BF01675F43
:100190007F4FCF010C94DA03823011F0833069F481
:1001A0001082128211820895108212821182BF0180
:1001B000685F7F4FCF010C94DA0308950895FC0126
:1001C00081E09081911101C080E0089580E0089560
:1001D0000F93CF93DF93EC011A82198288818530C7
:1001E00009F45EC008F1873009F476C088F18830E0
:1001F00049F48D8181118AC08E818111A9C08985C0
:1002000081118FC089819A8101969A838983892B74
:1002100029F31B821C821D821E821F82188619866A
:10022000DF91CF910F910895823049F1833051F7DA
:100230008D81811172C08C81882321F318821A82EA
:10024000198260E0CE010E94780582E088833FC079
:100250008D8181115BC08F818823A1F218821A825F
:10026000198200E028EE33E040E050E0BE01675F15
:100270007F4FCE010E94800388E0888328C08D8153
:1002800081114BC08B81882309F4BCCF18821A825C
:10029000198261E0CE010E94780583E0888317C04F
:1002A0008D81811133C08E81882309F4ABCF1882F0
:1002B0001A82198200E028EE33E040E050E0BE01EF
:1002C000685F7F4FCE010E94800387E0888381E0D2
:1002D00090E09A8389839DCF8D81811117C0888595
:1002E000811126C08F81882309F48CCF18821A824D
:1002F0001982BE01685F7F4FCE010E94DA0360E081
:10030000CE010E94780585E08883E1CFCE010E946E
:10031000710089819A81019678CFCE010E945B009D
:1003200071CF18821A821982BE01675F7F4FE4CFB6
:1003300018821A821982BE01685F7F4FCE010E9427
:10034000DA0361E0CE010E94780586E08883BFCFA2
:1003500018821A821982BE01675F7F4FEFCF9C011E
:10036000285F3F4F621773073CF00A9668177907BA
:1003700018F481E0FB0180830895DC01462F50E0F2
:10038000415051094830510548F44C5C5F4FFA0127
:100390000C94FA0581E09C91983009F080E0089572
:1003A00081E09C919730D9F380E0F9CF9C919150F6
:1003B00081E0933098F7089581E09C91923079F331
:1003C00080E0EDCF81E09C91933049F380E0E7CF6E
:1003D0009C91945081E0953008F7089581E09C91BC
:1003E0009530E9F280E0DBCF81E09C919630B9F264
:1003F00080E0D5CF21E0FC012383089521E0FC01BA
:100400002483089521E0FC012583089521E0FC0167
:100410002683089521E0FC01278308956F927F923F
:100420008F929F92AF92BF92CF92DF92EF92FF9204
:100430000F931F93CF93CE2DDC018D909D90AD90A7
:10044000BC901397181419041A041B041CF5149675
:10045000ED91FC911597A185B285AB2B49F13F0138
:10046000BFE06B0E711CC12CD12C7601C3940DC062
:10047000F301BFEFCB1ADB0AEB0AFB0AAFE06A0E0F
:10048000711CA185B285AB2B99F0C814D904EA047C
:10049000FB0471F7CF911F910F91FF90EF90DF90C8
:1004A000CF90BF90AF909F908F907F906F90089566
:1004B000528741870083118322833383C4837487E7
:1004C0006387968785871582168217821086E2CF0A
:1004D0000F931F93CF93DF938B01DC014D915D91BF
:1004E0006D917C91139714161506160617060CF5D8
:1004F0001496ED91FC91159781859285801791074F
:10050000E9F09F01215F3F4F81E090E0A0E0B0E083
:100510000BC0F9010196A11DB11D215F3F4FC1859F
:10052000D285C017D10751F084179507A607B707E2
:1005300081F7DF91CF911F910F9108951286118657
:1005400014861386DF91CF911F910F9108950F9319
:100550001F93FC017583648320833183428353831B
:1005600012161306140615064CF4DB011A961C929B
:100570001E9219971E969C938E931D971783068340
:100580001F910F9108952F923F924F925F926F9219
:100590007F928F929F92AF92BF92CF92DF92EF9213
:1005A000FF920F931F93CF93DF93CDB7DEB72897BA
:1005B0000FB6F894DEBF0FBECDBF1C0149835A832E
:1005C0006B837C83FC0180809180A280B3801814AF
:1005D00019041A041B040CF07AC0C12CD12C76012A
:1005E000C39418861F828481958113C0B701A60128
:1005F0002F813885215F3F4F38872F833FEFC31A04
:10060000D30AE30AF30A481559056A057B050CF07D
:100610005EC0AF81B885A80FB91F19962D913C9186
:100620001A973E832D83232B09F315964D905D90E9
:100630006D907C9018970D911D912D913C91139781
:1006400040165106620673068CF649815A816B8109
:100650007C81440E551E661E771E15964D925D9246
:100660006D927C92189740165106620673060CF440
:10067000BDCF1D96ED91FC911E970680F781E02D70
:100680006D817E811B968D919C911C970995F1013E
:1006900084819581EF81F885E80FF91F2481222359
:1006A00081F04581568167817085008111812281A9
:1006B0003381401B510B620B730B45835683678359
:1006C0007087F10180809180A280B3808FCF2896BF
:1006D0000FB6F894DEBF0FBECDBFDF91CF911F9153
:1006E0000F91FF90EF90DF90CF90BF90AF909F90D1
:1006F0008F907F906F905F904F903F902F900895D4
:100700004F925F926F927F92AF92BF92CF92DF92A1
:10071000EF92FF920F93CF93DF93DB01C0905402CF
:10072000D0905502E0905602F09057021C141D0420
:100730001E041F04FCF4C0915802D091590269852F
:100740007A85672B29F1FE013F96412C512C32010D
:1007500043940BC0EF016FEF461A560A660A760AF9
:100760003F96A984BA84AB2899F04C145D046E04BA
:100770007F0481F7DF91CF910F91FF90EF90DF9091
:10078000CF90BF90AF907F906F905F904F90089503
:10079000BA87A987288339834A835B830C839C8724
:1007A0008B8784E592E09E878D871D821E821F8243
:1007B0001886E0CF0F931F93CF93DF938B01409167
:1007C00054025091550260915602709157021416CE
:1007D0001506160617060CF5E0915802F09159021D
:1007E0008185928508171907E9F09F01215F3F4F26
:1007F00081E090E0A0E0B0E00BC0F9010196A11DFE
:10080000B11D215F3F4FC185D2850C171D0751F0E7
:1008100084179507A607B70781F7DF91CF911F913E
:100820000F9108951286118614861386DF91CF9159
:100830001F910F91089588E291E09093590280935F
:100840005802E4E5F2E084E190E0A0E0B0E08083CB
:100850009183A283B3831092320110923101F093FD
:100860003601E09335018FEA91E090935B0280932B
:100870005A020895AB01BC0184E592E00C94C302D6
:1008800097B121E030E001C0220F8A95EAF7209568
:10089000292327B9ECE7F0E080818560808380819F
:1008A00080648083808180628083EAE7F0E08081D9
:1008B00087608083808180688083089580917A003A
:1008C000806480937A0080917A0086FDFCCF8091CD
:1008D000790090E0089584B18C6184B987B1807FFC
:1008E00087B988B18F6088B985B1837E85B908954D
:1008F0002A9885B1886185B985E08A95F1F700006D
:10090000309B31C080E0319B84E3329B87E3339B93
:100910008AE295B1977E95B92B9895B1946195B976
:1009200095E09A95F1F70000309B82E3319B85E3D7
:10093000329B88E3339B80E395B19B7E95B92C98DD
:1009400095B19C6095B995E09A95F1F70000309BC0
:1009500083E3319B86E3329B89E3339B83E295B14A
:10096000937F95B9089581E3CECF259A08952D9A66
:1009700008952D980895CF93DF9300D000D01F9253
:10098000CDB7DEB70E94A3050E946B040E94C50587
:1009900085E00E9440040E941B048EE592E00E94C4
:1009A000A0008EE592E00E94AC00259A0E94BA0554
:1009B0006B017C0184E1C80ED11CE11CF11C712C7F
:1009C0008E010F5F1F4F5524539484E6682E93E1E8
:1009D000A92E91E0B92E0CC0711039C064E170E00D
:1009E00080E090E00E943A048EE592E00E94E800E8
:1009F00083B7816083BF889583B78E7F83BF0E9452
:100A0000BA056C157D058E059F0530F30E947804AC
:100A100080935D02882309F44CC090915C02891791
:100A200049F0813309F44CC0823309F451C0833357
:100A300009F456C080935C020E94BA056B017C01E8
:100A400094E1C90ED11CE11CF11C772039F280E041
:100A500091E00E94DE051F926F92BF92AF921F93AA
:100A60000F930E940006C8010E94DE058AE00E94E2
:100A7000D7050E945E044C0186E191E00E94DE05EC
:100A80009F928F92BF92AF921F930F930E94000686
:100A9000C8010E94DE050FB6F894DEBF0FBECDBFC1
:100AA00094E68916910438F48EE592E00E940602DD
:100AB00095CF80E0BFCF8EE592E00E940A028ECFF4
:100AC0008EE592E00E94FA0180915D02712CB2CF16
:100AD0008EE592E00E94FE0180915D02712CAACF0A
:100AE00075248EE592E00E94020280915D02A2CF01
:100AF000611102C02D9808952D9A08951F920F92AA
:100B00000FB60F9211248F939F93AF93BF93809151
:100B1000680290916902A0916A02B0916B020196FD
:100B2000A11DB11D8093680290936902A0936A028F
:100B3000B0936B02BF91AF919F918F910F900FBEB9
:100B40000F901F90189510926802109269021092EF
:100B50006A0210926B0284B5826084BDEEE6F0E01A
:100B6000808182608083789489EF87BD85B58360BA
:100B700085BD0895F8946091680270916902809132
:100B80006A0290916B0278940895E1ECF0E0808124
:100B90008861808388E690E09093C5008093C400CC
:100BA0000895E1ECF0E08081806880830895909161
:100BB000C00095FFFCCF8093C6000895FC013081F2
:100BC000332371F040E04F5F2091C00025FFFCCF40
:100BD0003093C600FC01E40FF11D30813111F3CFD9
:100BE00008958091C000881F8827881F08958091EC
:100BF000C6000895EE0FFF1F0590F491E02D0994B3
:100C0000AEE0B0E0E6E0F6E00C94A8080D891E899D
:100C100086E08C831A8309838FEF9FE79E838D8301
:100C2000AE01475E5F4F6F89788DCE0101960E94BD
:100C30002206EF81F885E00FF11F10822E96E4E086
:100C40000C94C408ACE0B0E0E8E2F6E00C949A083A
:100C50007C016B018A01FC0117821682838181FF6E
:100C6000BDC1CE0101964C01F7019381F60193FDC0
:100C7000859193FF81916F01882309F4ABC185327F
:100C800039F493FD859193FF81916F01853229F4A9
:100C9000B70190E00E940A08E7CF512C312C20E0E8
:100CA0002032A0F48B3269F030F4803259F0833274
:100CB00069F420612CC08D3239F0803339F4216021
:100CC00026C02260246023C0286021C027FD27C0E1
:100CD00030ED380F3A3078F426FF06C0FAE05F9E18
:100CE000300D1124532E13C08AE0389E300D11248C
:100CF000332E20620CC08E3221F426FD6BC120649D
:100D000006C08C3611F4206802C0883641F4F60122
:100D100093FD859193FF81916F018111C1CF982F30
:100D20009F7D9554933028F40C5F1F4FFFE3F983A8
:100D30000DC0833631F0833771F0833509F05BC025
:100D400022C0F801808189830E5F1F4F44244394A1
:100D5000512C540115C03801F2E06F0E711CF801DE
:100D6000A080B18026FF03C0652D70E002C06FEF48
:100D70007FEFC5012C870E94FF072C0183012C8582
:100D80002F77222E17C03801F2E06F0E711CF80188
:100D9000A080B18026FF03C0652D70E002C06FEF18
:100DA0007FEFC5012C870E94F4072C012C85206859
:100DB000222E830123FC1BC0832D90E04816590688
:100DC000B0F4B70180E290E00E940A083A94F4CFB0
:100DD000F50127FC859127FE81915F01B70190E025
:100DE0000E940A0831103A94F1E04F1A5108411458
:100DF000510471F7E5C0843611F0893639F5F801F0
:100E000027FF07C060817181828193810C5F1F4F32
:100E100008C060817181882777FD8095982F0E5FCB
:100E20001F4F2F76B22E97FF09C090958095709531
:100E300061957F4F8F4F9F4F2068B22E2AE030E0A0
:100E4000A4010E943C08A82EA81844C0853729F4A4
:100E50002F7EB22E2AE030E025C0F22FF97FBF2E80
:100E60008F36C1F018F4883579F0B4C0803719F0A6
:100E7000883721F0AFC02F2F2061B22EB4FE0DC0F5
:100E80008B2D8460B82E09C024FF0AC09F2F966066
:100E9000B92E06C028E030E005C020E130E002C0F5
:100EA00020E132E0F801B7FE07C0608171818281E4
:100EB00093810C5F1F4F06C06081718180E090E0DC
:100EC0000E5F1F4FA4010E943C08A82EA818FB2DFE
:100ED000FF77BF2EB6FE0BC02B2D2E7FA51450F42E
:100EE000B4FE0AC0B2FC08C02B2D2E7E05C07A2CA1
:100EF0002B2D03C07A2C01C0752C24FF0DC0FE01E0
:100F0000EA0DF11D8081803311F4297E09C022FF92
:100F100006C07394739404C0822F867809F073948A
:100F200023FD13C020FF06C05A2C731418F4530C71
:100F30005718732C731468F4B70180E290E02C8783
:100F40000E940A0873942C85F5CF731410F4371897
:100F500001C0312C24FF12C0B70180E390E02C8740
:100F60000E940A082C8522FF17C021FF03C088E5D4
:100F700090E002C088E790E0B7010CC0822F86782D
:100F800059F021FD02C080E201C08BE227FD8DE215
:100F9000B70190E00E940A08A51438F4B70180E375
:100FA00090E00E940A085A94F7CFAA94F401EA0D3F
:100FB000F11D8081B70190E00E940A08A110F5CFD1
:100FC000332009F451CEB70180E290E00E940A0874
:100FD0003A94F6CFF7018681978102C08FEF9FEF99
:100FE0002C96E2E10C94B608FC010590615070402B
:100FF0000110D8F7809590958E0F9F1F0895FC01E2
:101000006150704001900110D8F7809590958E0F37
:101010009F1F08950F931F93CF93DF93182F092FCE
:10102000EB018B8181FD03C08FEF9FEF20C082FF1A
:1010300010C04E815F812C813D81421753077CF4A3
:10104000E881F9819F012F5F3F4F39832883108307
:1010500006C0E885F985812F0995892B29F72E810E
:101060003F812F5F3F4F3F832E83812F902FDF9152
:10107000CF911F910F910895FA01AA27283051F1BD
:10108000203181F1E8946F936E7F6E5F7F4F8F4FB9
:101090009F4FAF4FB1E03ED0B4E03CD0670F781F18
:1010A000891F9A1FA11D680F791F8A1F911DA11DFD
:1010B0006A0F711D811D911DA11D20D009F4689436
:1010C0003F912AE0269F11243019305D3193DEF6DE
:1010D000CF010895462F4770405D4193B3E00FD094
:1010E000C9F7F6CF462F4F70405D4A3318F0495D7F
:1010F00031FD4052419302D0A9F7EACFB4E0A69562
:101100009795879577956795BA95C9F70097610583
:10111000710508959B01AC010A2E069457954795D9
:1011200037952795BA95C9F7620F731F841F951FCE
:10113000A01D08952F923F924F925F926F927F92DF
:101140008F929F92AF92BF92CF92DF92EF92FF92D7
:101150000F931F93CF93DF93CDB7DEB7CA1BDB0B83
:101160000FB6F894DEBF0FBECDBF09942A88398828
:1011700048885F846E847D848C849B84AA84B9842F
:10118000C884DF80EE80FD800C811B81AA81B9813B
:10119000CE0FD11D0FB6F894DEBF0FBECDBFED014F
:0611A0000895F894FFCF52
:1011A600204C4452205468726573686F6C642069E1
:1011B6007320002569002056616C75652066726F84
:0811C6006D20414443200000AC
:00000001FF
